{
  "transactions": [
    {
      "hash": "0xc9eb3c89800c2ea2765c7ad8c59233261c893ecb190666187b33f7b4f3a54d03",
      "transactionType": "CREATE",
      "contractName": "TestToken",
      "contractAddress": "0x7cc8b6e9fe615490db19a89991042fe1976d1832",
      "function": null,
      "arguments": null,
      "transaction": {
        "from": "0xa3a12179fc298998e256efd0754764cfea220100",
        "to": null,
        "gas": "0xb3abc",
        "value": "0x0",
        "input": "0x608060405234801562000010575f80fd5b506040518060400160405280600981526020016854657374205553446d60b81b81525060405180604001604052806005815260200164745553446d60d81b8152508160039081620000629190620002a3565b506004620000718282620002a3565b505050620000903369021e19e0c9bab24000006200009660201b60201c565b62000395565b6001600160a01b038216620000c55760405163ec442f0560e01b81525f60048201526024015b60405180910390fd5b620000d25f8383620000d6565b5050565b6001600160a01b03831662000104578060025f828254620000f891906200036f565b90915550620001769050565b6001600160a01b0383165f9081526020819052604090205481811015620001585760405163391434e360e21b81526001600160a01b03851660048201526024810182905260448101839052606401620000bc565b6001600160a01b0384165f9081526020819052604090209082900390555b6001600160a01b0382166200019457600280548290039055620001b2565b6001600160a01b0382165f9081526020819052604090208054820190555b816001600160a01b0316836001600160a01b03167fddf252ad1be2c89b69c2b068fc378daa952ba7f163c4a11628f55a4df523b3ef83604051620001f891815260200190565b60405180910390a3505050565b634e487b7160e01b5f52604160045260245ffd5b600181811c908216806200022e57607f821691505b6020821081036200024d57634e487b7160e01b5f52602260045260245ffd5b50919050565b601f8211156200029e57805f5260205f20601f840160051c810160208510156200027a5750805b601f840160051c820191505b818110156200029b575f815560010162000286565b50505b505050565b81516001600160401b03811115620002bf57620002bf62000205565b620002d781620002d0845462000219565b8462000253565b602080601f8311600181146200030d575f8415620002f55750858301515b5f19600386901b1c1916600185901b17855562000367565b5f85815260208120601f198616915b828110156200033d578886015182559484019460019091019084016200031c565b50858210156200035b57878501515f19600388901b60f8161c191681555b505060018460011b0185555b505050505050565b808201808211156200038f57634e487b7160e01b5f52601160045260245ffd5b92915050565b61075c80620003a35f395ff3fe608060405234801561000f575f80fd5b506004361061009b575f3560e01c806340c10f191161006357806340c10f191461011457806370a082311461012957806395d89b4114610151578063a9059cbb14610159578063dd62ed3e1461016c575f80fd5b806306fdde031461009f578063095ea7b3146100bd57806318160ddd146100e057806323b872dd146100f2578063313ce56714610105575b5f80fd5b6100a76101a4565b6040516100b491906105b6565b60405180910390f35b6100d06100cb36600461061d565b610234565b60405190151581526020016100b4565b6002545b6040519081526020016100b4565b6100d0610100366004610645565b61024d565b604051601281526020016100b4565b61012761012236600461061d565b610270565b005b6100e461013736600461067e565b6001600160a01b03165f9081526020819052604090205490565b6100a761027e565b6100d061016736600461061d565b61028d565b6100e461017a36600461069e565b6001600160a01b039182165f90815260016020908152604080832093909416825291909152205490565b6060600380546101b3906106cf565b80601f01602080910402602001604051908101604052809291908181526020018280546101df906106cf565b801561022a5780601f106102015761010080835404028352916020019161022a565b820191905f5260205f20905b81548152906001019060200180831161020d57829003601f168201915b5050505050905090565b5f3361024181858561029a565b60019150505b92915050565b5f3361025a8582856102ac565b61026585858561032d565b506001949350505050565b61027a828261038a565b5050565b6060600480546101b3906106cf565b5f3361024181858561032d565b6102a783838360016103be565b505050565b6001600160a01b038381165f908152600160209081526040808320938616835292905220545f19811015610327578181101561031957604051637dc7a0d960e11b81526001600160a01b038416600482015260248101829052604481018390526064015b60405180910390fd5b61032784848484035f6103be565b50505050565b6001600160a01b03831661035657604051634b637e8f60e11b81525f6004820152602401610310565b6001600160a01b03821661037f5760405163ec442f0560e01b81525f6004820152602401610310565b6102a7838383610490565b6001600160a01b0382166103b35760405163ec442f0560e01b81525f6004820152602401610310565b61027a5f8383610490565b6001600160a01b0384166103e75760405163e602df0560e01b81525f6004820152602401610310565b6001600160a01b03831661041057604051634a1406b160e11b81525f6004820152602401610310565b6001600160a01b038085165f908152600160209081526040808320938716835292905220829055801561032757826001600160a01b0316846001600160a01b03167f8c5be1e5ebec7d5bd14f71427d1e84f3dd0314c0f7b2291e5b200ac8c7c3b9258460405161048291815260200190565b60405180910390a350505050565b6001600160a01b0383166104ba578060025f8282546104af9190610707565b9091555061052a9050565b6001600160a01b0383165f908152602081905260409020548181101561050c5760405163391434e360e21b81526001600160a01b03851660048201526024810182905260448101839052606401610310565b6001600160a01b0384165f9081526020819052604090209082900390555b6001600160a01b03821661054657600280548290039055610564565b6001600160a01b0382165f9081526020819052604090208054820190555b816001600160a01b0316836001600160a01b03167fddf252ad1be2c89b69c2b068fc378daa952ba7f163c4a11628f55a4df523b3ef836040516105a991815260200190565b60405180910390a3505050565b5f602080835283518060208501525f5b818110156105e2578581018301518582016040015282016105c6565b505f604082860101526040601f19601f8301168501019250505092915050565b80356001600160a01b0381168114610618575f80fd5b919050565b5f806040838503121561062e575f80fd5b61063783610602565b946020939093013593505050565b5f805f60608486031215610657575f80fd5b61066084610602565b925061066e60208501610602565b9150604084013590509250925092565b5f6020828403121561068e575f80fd5b61069782610602565b9392505050565b5f80604083850312156106af575f80fd5b6106b883610602565b91506106c660208401610602565b90509250929050565b600181811c908216806106e357607f821691505b60208210810361070157634e487b7160e01b5f52602260045260245ffd5b50919050565b8082018082111561024757634e487b7160e01b5f52601160045260245ffdfea264697066735822122045448622ec60a6fe8bfd9bf5b216c14c0db2df7d208b19e18ab2b7afc2f8b3bd64736f6c63430008180033",
        "nonce": "0xd",
        "chainId": "0xaa044c"
      },
      "additionalContracts": [],
      "isFixedGasLimit": false
    },
    {
      "hash": "0x980854d98625da8dd2353dc439e5a0f981ab06f6ebfcbed6345048e6dbc849dc",
      "transactionType": "CALL",
      "contractName": null,
      "contractAddress": "0xa468ba20dd8ab475a8d78d0cf2ec7cf334eceba4",
      "function": "setAllowedToken(address,bool)",
      "arguments": [
        "0x7Cc8B6E9FE615490dB19A89991042Fe1976D1832",
        "true"
      ],
      "transaction": {
        "from": "0xa3a12179fc298998e256efd0754764cfea220100",
        "to": "0xa468ba20dd8ab475a8d78d0cf2ec7cf334eceba4",
        "gas": "0xfa6d",
        "value": "0x0",
        "input": "0x8aaa22840000000000000000000000007cc8b6e9fe615490db19a89991042fe1976d18320000000000000000000000000000000000000000000000000000000000000001",
        "nonce": "0xe",
        "chainId": "0xaa044c"
      },
      "additionalContracts": [],
      "isFixedGasLimit": false
    },
    {
      "hash": "0x65cbc1ade5673c6a9637fd7d0d475c19841a45801efa088a0adf64b16abc7a6d",
      "transactionType": "CALL",
      "contractName": "TestToken",
      "contractAddress": "0x7cc8b6e9fe615490db19a89991042fe1976d1832",
      "function": "mint(address,uint256)",
      "arguments": [
        "0xA3A12179Fc298998e256Efd0754764cfEa220100",
        "100000000000000000000"
      ],
      "transaction": {
        "from": "0xa3a12179fc298998e256efd0754764cfea220100",
        "to": "0x7cc8b6e9fe615490db19a89991042fe1976d1832",
        "gas": "0xb89c",
        "value": "0x0",
        "input": "0x40c10f19000000000000000000000000a3a12179fc298998e256efd0754764cfea2201000000000000000000000000000000000000000000000000056bc75e2d63100000",
        "nonce": "0xf",
        "chainId": "0xaa044c"
      },
      "additionalContracts": [],
      "isFixedGasLimit": false
    }
  ],
  "receipts": [
    {
      "type": "0x2",
      "status": "0x1",
      "cumulativeGasUsed": "0x97868",
      "logs": [
        {
          "address": "0x7cc8b6e9fe615490db19a89991042fe1976d1832",
          "topics": [
            "0xddf252ad1be2c89b69c2b068fc378daa952ba7f163c4a11628f55a4df523b3ef",
            "0x0000000000000000000000000000000000000000000000000000000000000000",
            "0x000000000000000000000000a3a12179fc298998e256efd0754764cfea220100"
          ],
          "data": "0x00000000000000000000000000000000000000000000021e19e0c9bab2400000",
          "blockHash": "0x761268e5db5c53a622bf87ceb7ded129c5279a41778867b2170c391b626cc1de",
          "blockNumber": "0x1ae4f99",
          "blockTimestamp": "0x6a2f4d2d",
          "transactionHash": "0x65cbc1ade5673c6a9637fd7d0d475c19841a45801efa088a0adf64b16abc7a6d",
          "transactionIndex": "0x1",
          "logIndex": "0x0",
          "removed": false
        }
      ],
      "logsBloom": "0x00000000000001000000000000000000000000000000000000000000000000000000000000000000000000000000000000000000000000000000000000000000000000000000000000000008000000000000000080000000000000000000000000000000020004000000000000000800020000000000000000000010000000000080000000000000000000000000000000000000000000000000000000000000000000000000000000000000000000000080000000000000000000000000000000000002000000000000000000000000000000000000000000000000000020000000000000000000000000000000000000000000000000000000000000000000",
      "transactionHash": "0x65cbc1ade5673c6a9637fd7d0d475c19841a45801efa088a0adf64b16abc7a6d",
      "transactionIndex": "0x1",
      "blockHash": "0x761268e5db5c53a622bf87ceb7ded129c5279a41778867b2170c391b626cc1de",
      "blockNumber": "0x1ae4f99",
      "gasUsed": "0x8a356",
      "effectiveGasPrice": "0xba43b7401",
      "blobGasUsed": "0x68c",
      "from": "0xa3a12179fc298998e256efd0754764cfea220100",
      "to": null,
      "contractAddress": "0x7cc8b6e9fe615490db19a89991042fe1976d1832"
    },
    {
      "type": "0x2",
      "status": "0x1",
      "cumulativeGasUsed": "0xa2db7",
      "logs": [],
      "logsBloom": "0x00000000000000000000000000000000000000000000000000000000000000000000000000000000000000000000000000000000000000000000000000000000000000000000000000000000000000000000000000000000000000000000000000000000000000000000000000000000000000000000000000000000000000000000000000000000000000000000000000000000000000000000000000000000000000000000000000000000000000000000000000000000000000000000000000000000000000000000000000000000000000000000000000000000000000000000000000000000000000000000000000000000000000000000000000000000",
      "transactionHash": "0xc9eb3c89800c2ea2765c7ad8c59233261c893ecb190666187b33f7b4f3a54d03",
      "transactionIndex": "0x2",
      "blockHash": "0x761268e5db5c53a622bf87ceb7ded129c5279a41778867b2170c391b626cc1de",
      "blockNumber": "0x1ae4f99",
      "gasUsed": "0xb54f",
      "effectiveGasPrice": "0xba43b7401",
      "blobGasUsed": "0x64",
      "from": "0xa3a12179fc298998e256efd0754764cfea220100",
      "to": "0xa468ba20dd8ab475a8d78d0cf2ec7cf334eceba4",
      "contractAddress": null
    },
    {
      "type": "0x2",
      "status": "0x1",
      "cumulativeGasUsed": "0xab35f",
      "logs": [
        {
          "address": "0x7cc8b6e9fe615490db19a89991042fe1976d1832",
          "topics": [
            "0xddf252ad1be2c89b69c2b068fc378daa952ba7f163c4a11628f55a4df523b3ef",
            "0x0000000000000000000000000000000000000000000000000000000000000000",
            "0x000000000000000000000000a3a12179fc298998e256efd0754764cfea220100"
          ],
          "data": "0x0000000000000000000000000000000000000000000000056bc75e2d63100000",
          "blockHash": "0x761268e5db5c53a622bf87ceb7ded129c5279a41778867b2170c391b626cc1de",
          "blockNumber": "0x1ae4f99",
          "blockTimestamp": "0x6a2f4d2d",
          "transactionHash": "0x980854d98625da8dd2353dc439e5a0f981ab06f6ebfcbed6345048e6dbc849dc",
          "transactionIndex": "0x3",
          "logIndex": "0x1",
          "removed": false
        }
      ],
      "logsBloom": "0x00000000000001000000000000000000000000000000000000000000000000000000000000000000000000000000000000000000000000000000000000000000000000000000000000000008000000000000000080000000000000000000000000000000020004000000000000000800020000000000000000000010000000000080000000000000000000000000000000000000000000000000000000000000000000000000000000000000000000000080000000000000000000000000000000000002000000000000000000000000000000000000000000000000000020000000000000000000000000000000000000000000000000000000000000000000",
      "transactionHash": "0x980854d98625da8dd2353dc439e5a0f981ab06f6ebfcbed6345048e6dbc849dc",
      "transactionIndex": "0x3",
      "blockHash": "0x761268e5db5c53a622bf87ceb7ded129c5279a41778867b2170c391b626cc1de",
      "blockNumber": "0x1ae4f99",
      "gasUsed": "0x85a8",
      "effectiveGasPrice": "0xba43b7401",
      "blobGasUsed": "0x64",
      "from": "0xa3a12179fc298998e256efd0754764cfea220100",
      "to": "0x7cc8b6e9fe615490db19a89991042fe1976d1832",
      "contractAddress": null
    }
  ],
  "libraries": [],
  "pending": [],
  "returns": {},
  "timestamp": 1781484845789,
  "chain": 11142220,
  "commit": "bf76eff"
}